:100000003EC058C084C056C055C054C053C052C032
:1000100051C050C04FC04EC04DC04CC04BC0090273
:1000200012000101008064090400000000000000CB
:1000300012011001FF000008030431C60102010291
:1000400003011A036900320063002D007400690087
:100050006E0079002D007500730062001A035400D1
:1000600069006C006C0020004800610072006200B2
:10007000610075006D00040309040100FF8E112466
:100080001FBECFE5D2E0DEBFCDBF10E0A0E6B0E0FE
:10009000E4EFFBE002C005900D92A037B107D9F75D
:1000A00020E0A0E7B0E001C01D92A43AB207E1F75A
:1000B000B7D49EC5A5CFA82FB92F80E090E041E02E
:1000C00050EA609530E009C02D9182279795879579
:1000D00010F084279527305EC8F36F5FA8F308956A
:1000E000EADF8D939D930895A6E088279927AA9526
:1000F00069F00197E1F3B399FCCFB39BFECF81E0A8
:100100009927A6B3019611F0A871D9F70895CF9356
:10011000CFB7CF93C395B39BE9F7B39B0BC0B39B0A
:1001200009C0B39B07C0B39B05C0B39B03C0B39B7F
:1001300001C0D3C00F92DF93C0918700DD27C25763
:10014000DF4F012EB39B03C0DF910F90E6CF2F93BB
:100150000F931F934F932FEF4F6F06B303FB20F9BD
:100160005F933F9350E03BE065C016B301265029F2
:1001700053FDC89556B3012703FB25F92F7306B32A
:10018000B1F05027102713FB26F906B22230F0F009
:1001900000C016B3012703FB27F90126502906B238
:1001A0002430E8F54F77206816B30000F6CF5027CB
:1001B0004F7D206206B2102F000000C006B300265B
:1001C0005029102713FB26F906B2E2CF4F7B06B366
:1001D000206400C0DACF01265029187106B269F1F7
:1001E0004E7F2160012F16B328C0002650294D7F75
:1001F00006B22260102F29C0012650294B7F06B27B
:100200002460012F2DC016B301265029477F286096
:10021000000006B22EC04F7E06B3206130C04227D8
:1002200006B3499300265029102706B24FEF13FB5F
:1002300020F9297F16B379F2187159F10126502956
:1002400006B2012703FB21F9237F06B371F20026D2
:1002500050293150D0F006B2102713FB22F9277E27
:1002600016B351F201265029012703FB06B223F9E8
:100270002F7C49F2000006B3102713FB24F9002657
:10028000502906B22F7939F270CF10E21ABF002739
:1002900017C03B503195C31BD04010E21ABF0881F4
:1002A000033CF9F00B34E9F0209185001981110F1E
:1002B0001213EDCF093651F10D3211F0013E39F72D
:1002C00000938C003F915F914F911F910F912F915F
:1002D000DF910F90CAB7C5FD1DCFCF91CFBFCF9192
:1002E000189520918C00222369F310918A00112324
:1002F00021F5343022F130938A002093860010914A
:1003000087003BE0311B3093870019C000918A00C1
:1003100001309CF40AE53091610034FD11C0009376
:100320006100CAE7D0E010C0052710E000C021C07E
:10033000052710E0C89508BB14C03AE501C032EDAE
:10034000032EC0E0D0E032E017B31861C39A08B3BF
:1003500017BB58E120E84FEF20FF052708BB279582
:1003600017951C3F28F700004552B0F720FF0527DE
:10037000279508BB17951C3FB8F629913A9561F768
:10038000077E10918B00110F08BBC250D04011F0B6
:100390001093850010E21ABF086017B3177E402F34
:1003A000477E54E05A95F1F708BB17BB48BB8ACF8C
:1003B000CF93DF9360918A00635067FDADC0809159
:1003C0008700CCE0D0E0C81BD109C257DF4F809135
:1003D00086008D3209F08FC0683009F09BC083EC35
:1003E00080937A008AE58093610010927100888181
:1003F000807631F0CE01F1D18F3F09F46BC071C02E
:100400008A81109283009981911106C01092840014
:1004100023E830E082E059C0953019F480938B00D6
:1004200046C09630F1F59B81913019F480E390E05D
:1004300004C0923049F48EE190E09093890080935B
:10044000880090E482E12AC0933031F5811109C01F
:1004500086E790E0909389008093880090E484E0A0
:100460001DC0813019F48CE590E004C0823049F45D
:1004700082E490E0909389008093880090E48AE180
:100480000DC0833049F486E690E090938900809314
:10049000880090E08AE002C090E480E090937100D0
:1004A00020C0983079F0993031F480938D0023E8A2
:1004B00030E080E00AC081E09A3009F080E023E873
:1004C00030E003C02DE830E081E0309389002093D4
:1004D000880007C0988197FD8E8190E89093710005
:1004E00007C09F81911104C09E81981708F4892F3D
:1004F000809360000FC08091710087FF0BC0CE0118
:1005000032D18F3F21F48EE18093610003C08111CD
:100510001092600010928A008091610084FF55C0A3
:10052000809160008F3F09F450C0C82F893008F0D7
:10053000C8E08C1B8093600090917A0088E889273E
:1005400080937A00CC2309F456C02091710027FFD4
:1005500008C06C2F8BE790E0C5D0C82F893078F5A4
:1005600023C0809188009091890026FF0AC0ABE7E4
:10057000B0E0FC012C2F34913D9331962150D9F7F6
:1005800008C0DC01EBE7F0E02C2F3D9131932150C6
:10059000E1F72FEF2C0F30E02F5F3F4F820F931FBB
:1005A00090938900809388006C2F8BE790E098DD12
:1005B000CC5FCC3041F08FEF8093600004C08FEFB0
:1005C00080936000CEE1C093610084E196B398719E
:1005D00031F48150D9F710928B0010928500C1E060
:1005E0008111C0E090917000C91759F0811190D12C
:1005F000C093700006C060E08BE790E071DDC4E05E
:10060000DACFDF91CF910895AC9A8BB780628BBF20
:100610000895E0916200F09163003197F1F788232B
:1006200029F0BA98C29AB29BFECF02C0BA9AC29879
:1006300080916400909165000197F1F70895B89852
:10064000C09A0895B89AC0980895FCDF81E0E1DF70
:10065000F6CF0F931F93CF93DF93C7E0D0E0082F1F
:1006600010E0C8010C2E02C0959587950A94E2F718
:1006700080FF02C0E4DF01C0E5DF81E0CADF80E087
:10068000C8DF219770F7DBDF81E0C3DFC6B380E00E
:10069000C0DF8C2F80958170DF91CF911F910F91DA
:1006A00008951F93CF93DF93182FC9DF80E0B1DF48
:1006B000D8E0C0E081E0ADDFCC0FB099C16080E050
:1006C000A8DFD150B9F7112311F0B9DF01C0BADFAB
:1006D00081E09FDF80E09DDFB2DF8C2FDF91CF9143
:1006E0001F9108950F931F93CF93DF93082F162F19
:1006F00080917600462F50E0813059F520917800A6
:10070000309179002417350708F4122F802FEC015F
:100710008C2F801B811788F420917800309179000C
:1007200021503109309379002093780081E0232B08
:1007300009F080E0B6DF8993EBCF8091770081FFED
:100740000CC08091780090917900892B31F47DDF85
:1007500004C060E070E0802F2ED2812FDF91CF9116
:100760001F910F9108950F931F93CF93DF93162F2F
:1007700020917600462F50E0213031F5209178000D
:10078000309179002417350708F4122F082FEC0157
:100790008C2F801B811760F48091780090917900F4
:1007A00001979093790080937800899152DFF0CF80
:1007B0008091770081FF0BC0809178009091790043
:1007C000892B29F442DF03C060E070E0F4D1812F6F
:1007D000DF91CF911F910F9108951F93CF93DF93D6
:1007E000EC0182E790E090938900809388008981F2
:1007F0008230E9F070F4882391F0813009F083C0F1
:1008000044E050E06AE770E082E790E0CBD184E01A
:100810007BC0833009F471C08830D0F174C08A8104
:10082000809372008B818093730082E06DC06A8137
:100830007B8180E090E022E736E040E050E063D149
:10084000685A7D4F8F4F9F4F20EB34E040E050E0DF
:1008500087D12830310538F481E090E0909365002D
:100860008093640006C027503109309365002093BF
:10087000640080916400909165009695879500973B
:1008800011F481E090E090936300809362003BC09C
:10089000C19A1C81110F8A8180FD1160898180FDC0
:1008A00003C0CDDE81E0B5DECDDE80E0B2DE812F9B
:1008B000D0DE811108C082E080937600109279002A
:1008C0001092780010C081E0809376008E819F8125
:1008D000909379008093780029812093770021FFFD
:1008E00003C0892B09F4B1DEC19881E02E813F81DC
:1008F000232B09F480E0819507C0809176008093D6
:10090000720081E001C080E0DF91CF911F910895D6
:10091000DF92EF92FF920F931F93CF93DF9308E044
:1009200010E0C0E0D0E8DD2EDC0ED1BEDDDB7C01C6
:1009300084E3E81689E0F8060CF4CD2DD695015035
:10094000110989F78FEF8C0F81BF0C2F10E00F5F1B
:100950001F4F81B790E0081719078CF0C5DB84534F
:10096000994097FF03C09195819591098E159F0538
:1009700014F4C1B77C0181B78F5F81BFEACFC1BFDB
:1009800061B780E090E026D100B600FE41C0CFB54F
:10099000D0E060E380E290E01DD1CE0164E670E03B
:1009A000CBD0605D81E290E015D12AE030E0CE014D
:1009B000B901C2D0C82FCB01B901BED060E3680F26
:1009C00082E290E007D160E36C0F83E290E002D115
:1009D00080E290E0F7D090E0909369008093680007
:1009E00081E290E0EFD090E090936B0080936A00FA
:1009F00082E290E0E7D090E090936D0080936C00ED
:100A000083E290E0DFD090E090936F0080936E00DF
:100A1000DF91CF911F910F91FF90EF90DF9008959C
:100A200020E030E080E80FB6F89486BD26BD0FBE0A
:100A300080E090E0C7D08F3F09F081BF80E290E076
:100A4000C1D0182F81E290E0BDD0D82F82E290E093
:100A5000B9D0C82F83E290E0B5D010531A3008F017
:100A60004FC0D053DA3008F04BC0C053CA3008F042
:100A700047C080538A3008F043C080E290E0A2D0A3
:100A800090E0909369008093680081E290E09AD0B2
:100A900090E090936B0080936A0082E290E092D0A5
:100AA00090E090936D0080936C0083E290E08AD098
:100AB00090E090936F0080936E00B898C09ABA98B7
:100AC000C29A1092790010927800BB9A84E1E2EB0E
:100AD000F1EF3197F1F700C000008150C1F7BB98EA
:100AE0009EE088E10FB6F894A89581BD0FBE91BD38
:100AF0008BDD7894B99ABD98C598A89559DCFDCF3F
:100B000081E080BFBACFEE27FF27AA27BB2708C006
:100B1000A20FB31FE41FF51F220F331F441F551FE1
:100B2000969587957795679598F37040A9F7009704
:100B300099F7BD01CF010895AA1BBB1B51E107C066
:100B4000AA1FBB1FA617B70710F0A61BB70B881F5D
:100B5000991F5A95A9F780959095BC01CD010895EC
:100B6000A1E21A2EAA1BBB1BFD010DC0AA1FBB1FB1
:100B7000EE1FFF1FA217B307E407F50720F0A21B23
:100B8000B30BE40BF50B661F771F881F991F1A9490
:100B900069F760957095809590959B01AC01BD01BA
:100BA000CF010895FB01DC0102C005900D92415078
:100BB0005040D8F70895DC0101C06D93415050407A
:100BC000E0F70895E199FECF9FBB8EBBE09A99278D
:100BD0008DB30895262FE199FECF1CBA9FBB8EBB23
:100BE0002DBB0FB6F894E29AE19A0FBE01960895D4
:040BF000F894FFCFA7
:100BF400FF5A030006000A033100320033003400B8
:00000001FF
